{
  "_format": "hh-sol-artifact-1",
  "contractName": "AccountFactory",
  "sourceName": "contracts/AccountFactory.sol",
  "abi": [
    {
      "inputs": [
        {
          "internalType": "address",
          "name": "_owner",
          "type": "address"
        }
      ],
      "name": "createAccount",
      "outputs": [
        {
          "internalType": "address",
          "name": "",
          "type": "address"
        }
      ],
      "stateMutability": "nonpayable",
      "type": "function"
    }
  ],
  "bytecode": "0x608060405234801561001057600080fd5b50610384806100206000396000f3fe608060405234801561001057600080fd5b506004361061002b5760003560e01c80639859387b14610030575b600080fd5b61004361003e3660046100ca565b61006c565b60405173ffffffffffffffffffffffffffffffffffffffff909116815260200160405180910390f35b6000808260405161007c906100bd565b73ffffffffffffffffffffffffffffffffffffffff9091168152602001604051809103906000f0801580156100b5573d6000803e3d6000fd5b509392505050565b6102478061010883390190565b6000602082840312156100dc57600080fd5b813573ffffffffffffffffffffffffffffffffffffffff8116811461010057600080fd5b939250505056fe608060405234801561001057600080fd5b5060405161024738038061024783398101604081905261002f91610054565b600080546001600160a01b0319166001600160a01b0392909216919091179055610084565b60006020828403121561006657600080fd5b81516001600160a01b038116811461007d57600080fd5b9392505050565b6101b4806100936000396000f3fe608060405234801561001057600080fd5b506004361061004c5760003560e01c806306661abd146100515780633a871cdd1461006d57806361461954146100845780638da5cb5b1461008e575b600080fd5b61005a60015481565b6040519081526020015b60405180910390f35b61005a61007b3660046100ea565b60009392505050565b61008c6100d3565b005b6000546100ae9073ffffffffffffffffffffffffffffffffffffffff1681565b60405173ffffffffffffffffffffffffffffffffffffffff9091168152602001610064565b600180549060006100e38361013e565b9190505550565b6000806000606084860312156100ff57600080fd5b833567ffffffffffffffff81111561011657600080fd5b8401610160818703121561012957600080fd5b95602085013595506040909401359392505050565b600060018201610177577f4e487b7100000000000000000000000000000000000000000000000000000000600052601160045260246000fd5b506001019056fea2646970667358221220d378f035ad7afc1204e3e67f3b27bd603326b93da1ed1acba5c8e710d09c073f64736f6c63430008180033a2646970667358221220082f8f3238d8b0315d99da23e0948f37804d816fd36044552dbfbad152b98b8264736f6c63430008180033",
  "linkReferences": {},
  "deployedLinkReferences": {}
}